:020000040800F2
:100000000000022085150008490800084B08000878
:100010004D0800084F0800085108000800000000C3
:10002000000000000000000000000000530800086D
:10003000550800080000000057080008590800088B
:10004000D5150008D5150008D5150008D5150008E8
:10005000D5150008D5150008D5150008D5150008D8
:10006000D5150008D5150008D5150008D5150008C8
:10007000D5150008D5150008D5150008D5150008B8
:10008000D5150008D5150008D5150008D5150008A8
:10009000D5150008D5150008D5150008D515000898
:1000A000D5150008D5150008D5150008D515000888
:1000B000D5150008D5150008D5150008D515000878
:1000C000D5150008D5150008D5150008D515000868
:1000D000D5150008D5150008D5150008D515000858
:1000E000D5150008D5150008D5150008D515000848
:1000F000D5150008D5150008D5150008D515000838
:10010000D5150008D5150008D5150008D515000827
:10011000D5150008D5150008D5150008D515000817
:10012000D5150008D5150008D5150008D515000807
:10013000D51500080000000000000000D5150008DB
:10014000D5150008D5150008D5150008D5150008E7
:10015000D5150008D5150008D5150008D5150008D7
:10016000D5150008D5150008D5150008D5150008C7
:10017000D5150008D5150008D515000800000000A9
:1001800000000000D515000800000000000000007D
:10019000D51500080000000000000000D51500087B
:1001A000000000000000000000000000D51500085D
:1001B000D5150008D5150008D5150008D515000877
:0401C000D515000849
:1001C4000348044B834202D0034B03B118477047E2
:1001D4000C0000200C000020000000000548064B25
:1001E4001B1AD90F01EBA301491002D0034B03B131
:1001F400184770470C0000200C000020000000008D
:1002040010B5064C237843B9FFF7DAFF044B13B15A
:100214000448AFF300800123237010BD0C000020BC
:1002240000000000D815000808B5044B1BB10449B0
:100234000448AFF30080BDE80840CFE700000000A9
:1002440010000020D815000870B50F4B0F4DAB42BD
:10025400A3EB050607D0B610002455F8043B01347F
:100264009847A642F9D801F0B5F9094D094B5E1B30
:10027400AB424FEAA60606D0002455F8043B0134ED
:100284009847A642F9D870BD101600081016000849
:100294001016000814160008830730B547D0541E02
:1002A400002A3ED0CAB2034601E0013C39D303F828
:1002B400012B9D07F9D1032C2CD9CDB205EB0525D3
:1002C4000F2C05EB054535D9A4F1100222F00F0CD3
:1002D40003F1100EE6444FEA121C1A46C2E9005517
:1002E400C2E9025510327245F8D10CF1010214F042
:1002F4000C0F03EB021204F00F0C13D0ACF1040347
:1003040023F003030433134442F8045B9342FBD108
:100314000CF003042CB1C9B21C4403F8011BA34222
:10032400FBD130BD64461346002CF4D1F9E70346F3
:100334001446C0E71A46A446E0E700BF53B94AB9D9
:10034400002908BF00281CBF4FF0FF314FF0FF30D9
:1003540000F06AB9ADF1080C6DE904CE00F006F8BE
:10036400DDF804E0DDE9022304B070472DE9F0472D
:10037400089D0E4604460F46002B4AD194468C45F0
:10038400B2FA82F260D942B1C2F12003974020FA56
:1003940003F30CFA02FC1F4394404FEA1C4E1FFA6D
:1003A4008CF6B7FBFEF1230C0EFB117743EA0743EF
:1003B40001FB06F098420AD91CEB030301F1FF3755
:1003C40080F01581984240F21281023963441B1A6D
:1003D400A4B2B3FBFEF00EFB103344EA034400FB6B
:1003E40006F6A6420AD91CEB040400F1FF3380F0A0
:1003F4000081A64240F2FD806444023840EA014094
:10040400A41B00211DB1D4400023C5E90043BDE86D
:10041400F0878B4205D90DB1C5E9000100210846DA
:10042400F5E7B3FA83F1002946D1B34202D38242FD
:1004340000F2F580841A66EB030201201746002DB2
:10044400E5D0C5E90047E2E7002A40F09380A1EB3C
:100454000C034FEA1C471FFA8CFE0121B3FBF7F68D
:1004640007FB1630230C43EA00430EFB06F09842C8
:1004740008D91CEB030306F1FF3802D2984200F2BC
:10048400D08046461B1AA4B2B3FBF7F007FB103327
:1004940044EA03440EFB00FEA64508D91CEB040401
:1004A40000F1FF3302D2A64500F2B6801846A4EB51
:1004B4000E0440EA0640A5E7C1F120078B4022FA6A
:1004C40007FC4CEA030C06FA01FE20FA07F426FAAC
:1004D40007F344EA0E0400FA01F84FEA1C404FEA1D
:1004E4001449B3FBF0FE1FFA8CF600FB1E3349EAF5
:1004F40003430EFB06F9994502FA01F20BD91CEBF2
:1005040003030EF1FF3A80F08580994540F2828022
:10051400AEF1020E6344A3EB0909A4B2B9FBF0F3F4
:1005240000FB139944EA094403FB06F6A64208D9E2
:100534001CEB040403F1FF3068D2A64266D9023BE7
:10054400644443EA0E40A41BA0FB02E6B442734693
:10055400B14652D34FD05DB1B8EB030264EB09044A
:1005640004FA07F722FA01F31F43CC40C5E90074EB
:1005740000214CE7C2F1200120FA01F30CFA02FC3D
:1005840026FA01F1964033434FEA1C471FFA8CFECA
:10059400B1FBF7F007FB1016190C41EA064100FB0A
:1005A4000EF68E4204FA02F408D91CEB010100F1A4
:1005B400FF382DD28E422BD902386144891B9BB25D
:1005C400B1FBF7F607FB161143EA014306FB0EF1F4
:1005D400994208D91CEB030306F1FF3814D299425F
:1005E40012D9023E63445B1A46EA004136E73946B3
:1005F400EDE6184602E7F045ADD2BEEB020366EB2A
:100604000C060138B146A6E74646ECE7034698E7F0
:100614004046D3E7D6467EE76444023847E70846B7
:100624000DE7023E63442DE7704700BF72B6FEE754
:1006340000B595B03422002107A8FFF72DFE002352
:10064400029303930493059306930093234A116C36
:1006540041F080511164126C02F080520092009AB1
:1006640001931F4B1A6842F440421A601B6803F45A
:1006740040430193019B012307934FF48033089374
:1006840002230D934FF480020E9204220F92B4229F
:10069400109211931293139307A800F055FBB0B96D
:1006A40000F06AFEA8B90F230293022303930023E8
:1006B40004934FF4A05305934FF4805306930521FC
:1006C40002A800F0A3F930B915B05DF804FBFFF7F8
:1006D400ADFFFFF7ABFFFFF7A9FF00BF00380240F3
:1006E4000070004008B500F015FFFFF7A1FF00F00F
:1006F40003F800F055F8FEE730B58BB000240594FC
:1007040006940794089409940194224B1A6B42F0BE
:1007140004021A631A6B02F004020192019A029411
:100724001A6B42F080021A631A6B02F08002029282
:10073400029A03941A6B42F001021A631A6B02F0D4
:1007440001020392039A04941A6B42F002021A63A0
:100754001B6B03F002030493049B0F4D22462021DC
:10076400284600F003FE4FF4005305934FF404139E
:100774000693079405A9094800F008FD2023059372
:10078400012306930794089405A9284600F0FEFC6B
:100794000BB030BD003802400000024000080240A7
:1007A40008B50A480A4B03604FF4E1334360002361
:1007B4008360C36003610C2242618361C36100F002
:1007C400F5F800B908BDFFF731FFFBE7280000206A
:1007D4000044004000B589B00023039304930593BB
:1007E400069307930268154B9A4202D009B05DF84C
:1007F40004FB0021019103F5FA331A6C42F4003230
:100804001A641A6C02F400320192019A02911A6B72
:1008140042F001021A631B6B03F001030293029B73
:100824000C230393022304930323069307230793C0
:1008340003A9034800F0AAFCD8E700BF0044004025
:1008440000000240FEE7FEE7FEE7FEE7FEE7704732
:100854007047704708B500F077FE08BD00B583B057
:10086400002100910C4B5A6C42F480425A645A6C39
:1008740002F480420092009A01911A6C42F0805274
:100884001A641B6C03F080530193019B072000F052
:10089400E5FD03B05DF804FB0038024010B50446E2
:1008A4000268136923F44053C1680B4313618368DE
:1008B40002691A4343691A43C3691A430168CB683E
:1008C40023F4164323F00C031343CB6002685369EB
:1008D40023F4407381690B4353610368314A9342A3
:1008E40006D002F58062934202D000F045F901E09F
:1008F40000F052F9E369B3F5004F29D00021031841
:1009040049411B1841F10001C90041EA5371DB0060
:10091400181863684FEA83024FEA937341F10001A8
:10092400FFF70CFD204AA2FB00314909642303FBB5
:1009340011031B013233A2FB03235B0903F0F00212
:1009440002EB011203F00F03216813448B6010BD06
:100954000023021843EB0301121841F10001C900FE
:1009640041EA5271D200101841F1000162689218F4
:100974005B41FFF7E3FC0C4AA2FB00314909642305
:1009840003FB1103DB003233A2FB03235B095A0090
:1009940002F4F87202EB011203F007032168134416
:1009A4008B60D4E7001001401F85EB5160B310B594
:1009B400044690F8413013B3242384F8413022686C
:1009C400D36823F40053D3602046FFF767FF2268FF
:1009D400136923F4904313612268536923F02A03B3
:1009E40053612268D36843F40053D36000206064E9
:1009F400202384F8413084F84230606310BD80F8CD
:100A04004030FFF7E7FED7E701207047002800F0E9
:100A14009B8070B50D4604464F4B1B6803F00F03D3
:100A24008B4208D2CBB24C4A1370136803F00F0305
:100A34008B4240F08B80236813F0020F17D013F021
:100A4400040F04D0454A936843F4E0539360236849
:100A540013F0080F04D0414A936843F46043936051
:100A64003E4A936823F0F003A1680B439360236824
:100A740013F0010F32D06368012B21D09A1E012A92
:100A840025D9364A126812F0020F61D033498A68B8
:100A940022F0030213438B6000F062FD06462F4BE5
:100AA4009B6803F00C036268B3EB820F16D000F06E
:100AB40057FD801B41F288339842F0D9032042E06D
:100AC400264A126812F4003FE0D101203BE0234A99
:100AD400126812F0007FD9D1012034E01E4B1B684C
:100AE40003F00F03AB4207D9EAB21B4B1A701B6821
:100AF40003F00F03AB422DD1236813F0040F06D08B
:100B0400164A936823F4E053E1680B439360236827
:100B140013F0080F07D0114A936823F46043216946
:100B240043EAC103936000F047F80C4B9B68C3F39E
:100B340003130B4AD35CD8400A4B18600A4B18685D
:100B440000F0C2FC002070BD012070470120FAE7CC
:100B54000120F8E70120F6E7003C0240003802409B
:100B6400F81500080800002004000020014B186854
:100B7400704700BF0800002008B5FFF7F7FF044BDB
:100B84009B68C3F38223034AD35CD84008BD00BFEB
:100B940000380240F015000808B5FFF7E7FF044BE2
:100BA4009B68C3F34233034AD35CD84008BD00BFFB
:100BB40000380240F015000808B5604B9B6803F04C
:100BC4000C03082B06D00C2B5ED0042B40F0B48011
:100BD4005B4833E0594B5A6802F03F025B6813F4F8
:100BE400800F2CD0554B5868C0F388104FEA401C36
:100BF400BCEB000C6EEB0E0E4FEA8E1343EA9C63C3
:100C04004FEA8C11B1EB0C0163EB0E03DB0043EAFA
:100C14005173C90011EB000C43F100035902002386
:100C24004FEA4C2041EADC51FFF788FB434B5B68F9
:100C3400C3F3014301335B00B0FBF3F008BD3F4B4A
:100C44005868C0F388104FEA401CBCEB000C6EEBF4
:100C54000E0E4FEA8E1343EA9C634FEA8C11B1EBFC
:100C64000C0163EB0E03DB0043EA5173C90011EB83
:100C7400000C43F10003990200234FEA8C2041EA5F
:100C84009C51FFF75BFBD1E72C4B5A6802F03F0203
:100C94005B6813F4800F2AD0284B5868C0F388107F
:100CA4004FEA401CBCEB000C6EEB0E0E4FEA8E13A9
:100CB40043EA9C634FEA8C11B1EB0C0163EB0E0326
:100CC400DB0043EA5173C90011EB000C43F100034C
:100CD400590200234FEA4C2041EADC51FFF72EFB76
:100CE400164B5B68C3F30273B0FBF3F0A6E7134B38
:100CF4005868C0F388104FEA401CBCEB000C6EEB44
:100D04000E0E4FEA8E1343EA9C634FEA8C11B1EB4B
:100D14000C0163EB0E03DB0043EA5173C90011EBD2
:100D2400000C43F10003990200234FEA8C2041EAAE
:100D34009C51FFF703FBD3E702487FE700380240EA
:100D440000127A000024F400002800F0018270B53B
:100D540082B00446036813F0010F41D0994B9B689D
:100D640003F00C03042B32D0964B9B6803F00C0366
:100D7400082B27D0934B9B6803F00C030C2B59D002
:100D84006368B3F5803F5BD0B3F5A02F5ED08D4B85
:100D94001A6822F480321A601A6822F480221A60D7
:100DA4006368002B5CD000F0DBFB0546854B1B68B9
:100DB40013F4003F14D100F0D3FB401B6428F5D991
:100DC4000320CCE17F4B5B6813F4800FD2D07D4BC2
:100DD4001B6813F4003F03D06368002B00F0BA8152
:100DE400236813F0020F60D0764B9B6813F00C0F4E
:100DF4004AD0744B9B6803F00C03082B3FD0714B13
:100E04009B6803F00C030C2B69D0E368002B75D0AE
:100E14006D4B01221A6000F0A3FB0546694B1B6869
:100E240013F0020F61D100F09BFB401B0228F5D99F
:100E3400032094E1634B5B6813F4800FA0D0C6E7F2
:100E4400604A136843F480331360A9E75D4B1A6862
:100E540042F480221A601A6842F480321A609FE7D2
:100E640000F07EFB0546574B1B6813F4003FB7D0D8
:100E740000F076FB401B6428F5D903206FE1514B49
:100E84005B6813F4800FBAD14E4B1B6813F0020F4A
:100E940003D0E368012B40F05F814A4A136823F0D2
:100EA400F803216943EAC1031360236813F0080FB0
:100EB40049D06369002B33D0434B0122C3F8802E01
:100EC40000F04EFB05463F4B5B6F13F0020F3AD127
:100ED40000F046FB401B0228F5D903203FE1394BC3
:100EE4005B6813F4800F90D1CEE7364A136823F081
:100EF400F803216943EAC1031360D6E7324B0022A9
:100F04001A6000F02DFB05462E4B1B6813F0020FF0
:100F1400CBD000F025FB401B0228F5D903201EE1AD
:100F2400294B0022C3F8802E00F01AFB0546254BFE
:100F34005B6F13F0020F06D000F012FB401B022877
:100F4400F5D903200BE1236813F0040F76D01D4B71
:100F54001B6C13F0805F33D100230193194B1A6C7F
:100F640042F080521A641B6C03F080530193019B7E
:100F74000125164B1B6813F4807F29D0A368012B2D
:100F84003AD0052B3ED00F4B1A6F22F001021A679C
:100F94001A6F22F004021A67A368002B3CD000F0F9
:100FA400DFFA0646074B1B6F13F0020F45D100F022
:100FB400D7FA801B41F288339842F3D90320CEE05C
:100FC4000025D6E700380240000047420070004088
:100FD4006B4A136843F48073136000F0C1FA064649
:100FE400674B1B6813F4807FC8D100F0B9FA801BEB
:100FF4000228F5D90320B2E0624A136F43F00103DB
:101004001367C9E75F4B1A6F42F004021A671A6F3D
:1010140042F001021A67BFE700F0A2FA0646594BF4
:101024001B6F13F0020F08D000F09AFA801B41F2F4
:1010340088339842F3D9032091E0EDB9A369002BDA
:1010440000F08C804F4A926802F00C02082A54D0B7
:10105400022B17D04C4B00221A6600F081FA04468A
:10106400484B1B6813F0007F45D000F079FA001B51
:101074000228F5D9032072E0424A136C23F080530E
:101084001364DBE7404B00221A6600F069FA054658
:101094003C4B1B6813F0007F06D000F061FA401B44
:1010A4000228F5D903205AE0E369226A1343626AED
:1010B40043EA8213A26A5208013A43EA0243E26A0B
:1010C40043EA0263226B43EA02732E4A53602E4BB7
:1010D40001221A6600F044FA04462A4B1B6813F0F6
:1010E400007F06D100F03CFA001B0228F5D903204A
:1010F40035E0002033E0002031E0012B31D0214BDA
:101104005B6803F48001E26991422CD103F03F0251
:10111400216A8A4229D1616A47F6C0721A40B2EB49
:10112400811F24D103F44031A26A5208013AB1EB81
:10113400024F1ED103F07062E16AB2EB016F1AD163
:1011440003F0E043226BB3EB027F16D1002006E0EC
:1011540001207047012002E0012000E0002002B0DD
:1011640070BD0120FBE70120F9E70120F7E701202A
:10117400F5E70120F3E70120F1E70120EFE700BFE5
:1011840000700040003802400000474200230F2B4B
:1011940000F2E38070B582B065E085684FEA430EE3
:1011A400032404FA0EF425EA0405CC6804FA0EF4C8
:1011B4002C438460446824EA02044A68C2F300129F
:1011C4009A40224342605CE0DC08083450F8242052
:1011D40003F00705AD004FF00F0E0EFA05FE22EAEC
:1011E4000E0E0A69AA4042EA0E0240F824205CE08E
:1011F400062200E0002202FA0EF22A430234574D7E
:1012040045F82420564A94686FEA0C0224EA0C0537
:101214004E6816F4801F01D04CEA0405504CA560BA
:10122400E46802EA04054E6816F4001F01D04CEA93
:1012340004054B4CE560646802EA04054E6816F444
:10124400003F01D04CEA0405454C65602468224007
:101254004D6815F4803F01D04CEA0402404C2260F2
:1012640001330F2B77D801229A400C6804EA020C50
:1012740032EA0404F4D14C6804F00304013C012C68
:101284008BD94A6802F00302032A09D0C4685D00BE
:101294000322AA4024EA02048A68AA402243C260C4
:1012A4004A6802F00302022A8ED004684FEA430E11
:1012B400032202FA0EF224EA02044A6802F003024C
:1012C40002FA0EF2224302604A6812F4403FC7D089
:1012D40000220192234A546C44F480445464526CB6
:1012E40002F480420192019A9C08A51C1B4A52F800
:1012F400255003F0030E4FEA8E0E0F2202FA0EF26F
:1013040025EA0205184A90423FF474AF02F5806260
:10131400904216D002F58062904214D002F58062A9
:10132400904212D002F58062904210D002F58062A1
:1013340090420ED002F5806290423FF459AF0722EA
:1013440059E7012257E7022255E7032253E7042213
:1013540051E705224FE702B070BD704700380140E5
:10136400003C014000380240000002400AB18161A3
:10137400704709048161704710B582B0002301935E
:10138400194B1A6C42F080521A641B6C03F08053A0
:101394000193019B154B01221A6400F0E1F8044605
:1013A400134B5B6813F4803F08D100F0D9F8001B9D
:1013B400B0F57A7FF4D9032002B010BD0B4B0122A3
:1013C4005A6400F0CDF80446094B5B6813F4003FFF
:1013D40007D100F0C5F8001BB0F57A7FF4D90320DB
:1013E400EAE70020E8E700BF0038024000000E42B0
:1013F40000700040002808DB0901C9B200F1604018
:1014040000F5614080F80013704700F00F000901F7
:10141400C9B2014B1954704714ED00E000B500F057
:101424000700C0F1070CBCF1040F28BF4FF0040CF7
:10143400031D062B0FD9C31E4FF0FF3E0EFA0CF00E
:1014440021EA000199400EFA03FE22EA0E0241EA63
:1014540002005DF804FB0023EEE70000074AD368AE
:1014640023F4E0631B041B0C000200F4E06003435C
:1014740043F0BF6343F40033D360704700ED00E0F2
:1014840010B50446054BD868C0F30220FFF7C6FF29
:1014940001462046FFF7AEFF10BD00BF00ED00E09F
:1014A4000138B0F1807F0BD24FF0E0235861054A38
:1014B400F02182F823100020986107221A617047F6
:1014C4000120704700ED00E010B504460E4B1A7879
:1014D4004FF47A73B3FBF2F30C4A1068B0FBF3F0E9
:1014E400FFF7DEFF68B90F2C01D901200AE00022C2
:1014F40021464FF0FF30FFF7C3FF054B1C6000206F
:1015040000E0012010BD00BF000000200800002002
:101514000400002008B50B4B1A6842F400721A60EC
:101524001A6842F480621A601A6842F480721A607F
:101534000320FFF793FF0020FFF7C6FFFFF78EF9A4
:10154400002008BD003C0240034A1168034B1B788D
:101554000B441360704700BF70000020000000209F
:10156400014B1868704700BF70000020034AD2F88E
:10157400883043F47003C2F88830704700ED00E00F
:10158400DFF834D0FFF7F2FF0C480D490D4A002371
:1015940002E0D458C4500433C4188C42F9D30A4A24
:1015A4000A4C002301E013600432A242FBD3FEF78D
:1015B4004BFEFFF797F87047000002200000002060
:1015C4000C000020181600080C00002074000020F5
:1015D400FEE70000F8B500BFF8BC08BC9E467047A3
:0C15E400F8B500BFF8BC08BC9E4670477C
:1015F00000000000010203040000000000000000E1
:081600000102030406070809BA
:0816080068EDFF7F0100000006
:041610002D0200089F
:0416140005020008C3
:0C16180001000000100000000024F4009D
:040000050800158555
:00000001FF
